S018000061726475696E6F5F74656D706C6174652E737265635F
S21440000028460020C93C4000C53C4000C53C400056
S214400010C53C4000C53C4000C53C400000000000D8
S214400020000000000000000000000000C53C40004A
S214400030C53C400000000000C53C4000C53C4000B8
S214400040C53C4000C53C4000C53C4000C53C400067
S214400050C53C4000C53C4000C53C40000000000098
S214400060C1094000F909400000000000C11C4000E2
S214400070D51C400000000000310A4000690A4000DC
S2144000800000000000000000C53C4000C53C4000A9
S214400090C53C4000C53C4000C53C40008909400086
S2144000A0C53C4000C53C4000000000000000000089
S2144000B000000000C53C4000C53C4000C53C400038
S2144000C0C53C4000C53C40005D23400010B5054C93
S2144000D0237833B9044B13B10448AFF300800123AF
S2144000E0237010BDE408002000000000F04F4000E0
S2144000F0084B10B51BB108480849AFF300800848C4
S214400100036803B910BD074B002BFBD0BDE8104079
S214400110184700BF00000000F04F4000E8080020ED
S214400120F04F40000000000038B5234C20464FF406
S214400130E131224B984722484FF4E131214B984712
S2144001400B20214B98474FF4FA60204B98472046A7
S2144001501F49204B984725461F4C2846A047002855
S214400160FBD0154C20461D4B98471D4D3038286017
S21440017020461C491C4B9847204629680A221B4BA0
S21440018098470F4C23681B682046002198472368F1
S2144001901B6820462978984723681B6820464021DC
S2144001A0984723681B6820460121984723681B68A8
S2144001B020462978984738BD78120020C90C400060
S2144001C0FC0D00205D0640002D3A40006D094000C1
S2144001D0D44E4000310B4000350C4000510D4000DD
S2144001E000090020F04E4000ED0A4000150C40008B
S2144001F02DE9F0414048414B984700284ADD3E48AB
S2144002003F4B9847C0B20D286ED00A283AD165E0D9
S2144002103C4B1B79303B012A1FDD3B4F01253B4CB5
S2144002205FFA83F83E1F23681B682046414698477E
S21440023023681B6820463178984723681B68204609
S2144002400021984723681B68204617F8011F9847E7
S2144002500135D6F88430AB42E5DC0022294BC3F8A2
S214400260842025482A492B4B984713E00022254BEB
S214400270C3F884202548284B98471F482749254BD4
S214400280984707E01F4AD2F88430D11808710133E6
S214400290C2F884301D48224B984703282ADD1B4D60
S2144002A02846204CA0472846A04707462846A04751
S2144002B02846A0470646104C20461B491B4DA847DB
S2144002C0204639460A221A4B984720461949A847DD
S2144002D02046F1B2184B9847BDE8F081094BD3F859
S2144002E08420002A94DCC1E7064BD3F88420002AF9
S2144002F08EDCBBE7BDE8F08178120020350C40006C
S214400300510D40000009002004090020FC0D00208B
S214400310144F4000310B40002D054000204F400058
S2144003200D0540003D074000284F4000ED0A4000C4
S214400330090C4000344F40004D0B400090F81C0123
S214400340704700BF90F81C3113F0FF0F1DBFD0F868
S21440035014311878C0B24FF0FF307047704700BF76
S21440036008B590F8283213F0FF0F06D1D0F82C02CB
S2144003704FF400710D4B984708BDD0F820321978DD
S214400380C9B2D0F81C2293420CBF00F21D130133B1
S214400390C0F8203290F82832013BDBB280F8283291
S2144003A0D0F82C02024B984708BD00BFED1C400019
S2144003B0F51C400010B50446D0F82C02D4F81811AD
S2144003C0094B9847D4F81831D4F8102193420CBF03
S2144003D004F110030133C4F8183194F81C3101338A
S2144003E0DBB284F81C3110BD051D4000034690F872
S2144003F01C2102F0FF00AAB1D3F8142112780A702B
S214400400D3F81421D3F810118A420CBF03F110021E
S2144004100132C3F8142193F81C21013AD2B283F872
S2144004201C210120704700BF00B583B002A90023FD
S21440043001F8013D034B98479DF8070003B05DF86F
S21440044004FB00BFED03400090F82832DBB2FF2BE0
S21440045015D0D0F824321970D0F82032D0F81C22AB
S21440046093420CBF00F21D130133C0F8203290F8BF
S21440047028320133DBB280F8283201207047002052
S214400480704700BF38B504460D4690F8283213F042
S214400490FF0F05D1D0F82C02436913F0020F0AD1A2
S2144004A0D4F82C024FF40071054B98472046294655
S2144004B0044B984738BD044B9847012038BD00BFD1
S2144004C0E91C400049044000F51C400010B40B4BAA
S2144004D0002058604FF47A719960094A1A60094CB6
S2144004E0C3F82C42C3F83402C3F83812C3F830229B
S2144004F0054AC3F85C245DF8044B70479409002015
S214400500404F400000060E4000080E40B0F81C0168
S21440051080B27047B0F81C319BB223B1D0F814318A
S2144005201878C0B270474FF0FF307047B0F82C32A2
S2144005309BB2002BFAD100F58F73C0F82432C0F876
S214400540283200F11003C0F81431C0F8183172B6E2
S214400550BFF35F8F054B00221A70A0F81C210122C2
S2144005601A70BFF35F8F62B6704700BFA3000020CB
S214400570F0B587B004460D46D0F830322C4A934248
S21440058009D12C484FF00061602200232A4EB04724
S2144005900E2007460CE0294A934246D125484FF0A4
S2144005A000614FF4C0020023234EB0470F20074699
S2144005B00023A4F81C3104F11002C4F81421C4F836
S2144005C0182104F20F12C4F81021A4F82C3204F5B6
S2144005D08F72C4F82422C4F8282204F21D22C4F8DC
S2144005E02022039304930593C02301934FF40063A2
S2144005F0029306AE46F8185D114B9847D4F8300281
S2144006003146104A104B9847D4F830020F4B984763
S214400610D4F830020E4B9847D4F8300201210D4BE7
S21440062098470123BB400C4A136007B0F0BD00BF9B
S21440063000400240000E0E408938400000800240D4
S2144006402D3A4000000E2707293C40007D3C4000E4
S214400650853C40008D3C400000E100E008B50622A5
S214400660014B984708BD00BF71054000B0F81C31EB
S2144006709BB2FF2B1FD8D0F818311970D0F818311C
S214400680D0F8102193420CBF00F110030133C0F89C
S214400690183172B6BFF35F8F084A00231370B0F864
S2144006A01C3101339BB2A0F81C3101201070BFF3FF
S2144006B05F8F62B670470020704700BFA3000020DF
S2144006C010B582B00446D0F8300201A9044B9847D2
S2144006D020469DF80410034B984702B010BD00BF5B
S2144006E0AD3C40006D064000B0F81C319BB203B3F1
S2144006F0D0F814311B780B70D0F81431D0F8102194
S21440070093420CBF00F110030133C0F8143172B6A7
S214400710BFF35F8F084A00231370B0F81C31013BCB
S2144007209BB2A0F81C3101201070BFF35F8F62B6F9
S21440073070470020704700BFA3000020B0F81C316F
S2144007409BB253B100B583B002A9002301F8013D26
S214400750054B98479DF8070002E04FF0FF30704782
S21440076003B05DF804FB00BFE9064000B0F82C3249
S2144007709BB2FF2B1FD8D0F828321970D0F82832F9
S214400780D0F8202293420CBF00F58F730133C0F897
S214400790283272B6BFF35F8F084A00231370B0F852
S2144007A02C3201339BB2A0F82C3201201070BFF3DC
S2144007B05F8F62B670470020704700BFA3000020DE
S2144007C010B50446B0F82C329BB243B9D0F830028C
S2144007D0436913F0020F02D0094B98470DE0B4F876
S2144007E02C329BB2B3F5807FF9D02046054B984714
S2144007F0D4F830020221044B9847012010BD00BFB8
S214400800993C40006D0740008D3C4000B0F82C32CB
S2144008109BB203B3D0F824321B780B70D0F8243246
S214400820D0F8202293420CBF00F58F730133C0F8F6
S214400830243272B6BFF35F8F084A00231370B0F8B5
S2144008402C32013B9BB2A0F82C3201201070BFF333
S2144008505F8F62B670470020704700BFA30000203D
S21440086010B582B00446B0F82C329BB22BB9D0F803
S21440087030020221074B984709E00DF10701064B6D
S2144008809847D4F830029DF80710044B984702B0BA
S21440089010BD00BF913C40000D084000993C400010
S2144008A010B40B4B002058604FF47A719960094A97
S2144008B01A60094CC3F83042C3F83802C3F83C12F9
S2144008C0C3F83422054AC3F864245DF8044B7047E5
S2144008D0FC0D0020604F4000004002400080024077
S2144008E070B584B006461720164B9847164C0094B1
S2144008F03046214602AA03AB144DA847144D28465D
S2144009000021039A42F48042124B9847029AB4FB65
S214400910F2F228460021B2FBF6F20F4B984700242D
S2144009200E4B1C602846214610220D4B98474FF42C
S21440093000020C4B1A60284621460B4B984704B0E1
S21440094070BD00BF2D3A4000000E2707E51B400053
S21440095000000140A91B4000CD1B40006C12002047
S214400960D51B400000E100E0C51B4000054B1B685E
S214400970C243934288BF01331844024A13688342F5
S214400980FCD170476C12002008B50A4800210A4B7B
S214400990984710F0100F0CD0084B1B68B3F1FF3F80
S2144009A003D10022054B1A6008BD044A1368013380
S2144009B0136008BD00000140DD1B40006C120020A3
S2144009C010B50848084B9847044610F0010F02D06F
S2144009D00648074B984714F4007F02D00348054B5F
S2144009E0984710BD00060E40F11C400094090020B8
S2144009F0B50340006103400010B50848084B9847CF
S214400A00044610F0010F02D00648074B984714F4EE
S214400A10007F02D00348054B984710BD00060E40A5
S214400A20F11C4000C40B0020B503400061034000A9
S214400A3010B50848084B9847044610F0010F02D0FE
S214400A400648074B984714F0020F02D00348054B60
S214400A50984710BD00400240953C4000FC0D0020E9
S214400A60C10640006108400010B50848084B98474A
S214400A70044610F0010F02D00648074B984714F082
S214400A80020F02D00348054B984710BD0080024035
S214400A90953C400030100020C106400061084000F0
S214400AA008B5044B9847044B9847044B9847044C6A
S214400AB0A047FDE7193B400035374000290140007C
S214400AC0F1014000F8B572B105460E4617460024BF
S214400AD02B681B68284616F8011B984720B101343E
S214400AE0A742F5D100E000242046F8BD61B138B5F4
S214400AF00C4605460846054B984702462B685B68F9
S214400B0028462146984738BD00207047B5464000E5
S214400B1008B503681B68984708BD00BF08B503685A
S214400B205B6802490222984708BD00BF784F4000E4
S214400B3038B50546034B984704462846024B984727
S214400B40204438BDED0A40001D0B400038B5054630
S214400B50034B984704462846024B9847204438BDE6
S214400B60110B40001D0B400030B58BB004460023EF
S214400B708DF82430012A98BF0A220DF12300B1FBDC
S214400B80F2F303FB121101F0FF010546092994BF59
S214400B9030313731C9B2017001381946002BEED1D9
S214400BA04DB12846054B9847024623685B68204669
S214400BB02946984700E000200BB030BDB5464000BF
S214400BC070B505460C4622B903681B68C9B29847FB
S214400BD070BD0A2A10D100290ADA2D21084B984701
S214400BE00646284661420A22064B9847304470BD66
S214400BF00A22044B984770BDD2B2024B984770BD4C
S214400C00110B4000690B400008B5014B984708BDE2
S214400C10C10B400038B50546034B98470446284666
S214400C20024B9847204438BDC10B40001D0B400086
S214400C30704700BF90F81C01704700BFD0F81431D1
S214400C4018787047704700BF38B50D46034CA0472C
S214400C500028FCD02846024B984738BDA9134000D0
S214400C60491440002DE9F84382B190460F460026CD
S214400C703546084CDFF82090A0470028FCD0785D29
S214400C80C847054401364645F6D100E000252846CB
S214400C90BDE8F883A9134000491440000022426092
S214400CA04FF47A7181600749016000F20F11C0F875
S214400CB0101100F11001C0F81411C0F8181180F896
S214400CC01C217047984F400008B5014B984708BD17
S214400CD0E51A4000D0F818311970D0F81831D0F81D
S214400CE0102193420CBF00F110030133C0F81831B5
S214400CF090F81C31013380F81C310120704700BF4A
S214400D0010B50446034B9847C1B22046024B98475D
S214400D1010BD00BF15134000D50C4000034690F8A8
S214400D201C01A0B1D3F8142112780A70D3F814210C
S214400D30D3F810118A420CBF03F110020132C3F8F7
S214400D40142193F81C21013A83F81C210120704796
S214400D5000B583B000238DF8073090F81C3133B1CE
S214400D600DF10701044B98479DF8070001E04FF04E
S214400D70FF3003B05DF804FB1D0D400020B908B5F8
S214400D800248034B984708BD704700BF78120020C2
S214400D90010D400010B5054C2046054B98472046AF
S214400DA00449054A054B984710BD00BF78120020FD
S214400DB09D0C4000310C400000000020413F4000A8
S214400DC00E4900230B700E4A13800E4AA120107065
S214400DD020205070538093800220D08013810A4A8E
S214400DE04FF4E130106013715371082393710B7800
S214400DF00133DBB20B700120704700BF381400206F
S214400E00E01400204C140020A0130020024A13785F
S214400E10013BDBB21370704738140020044A137845
S214400E20013BDBB2137013780022024B1A707047F6
S214400E30A91300204214002000207047002070476D
S214400E401D4B1B7813F0800F12D003F06003202B4D
S214400E5028D1194B5B78212B26D1174BDB88072BE3
S214400E6024D1154B154A9A6007229A810120704773
S214400E7003F06003202B1BD10F4B5878202804D05A
S214400E80222814BF0020012070470B4BDB88072B1D
S214400E9010D1094B0A4A1A61084A9A6007229A8179
S214400EA001207047002070470020704700207047A0
S214400EB0002070470020704700160020A013002036
S214400EC0C50E4000704700BF424B1B7813F0FF0F23
S214400ED07FD130B583B0404B984730B13F4B1C88EC
S214400EE03F4B9847844206D171E03C4B1C883D4BB3
S214400EF0984784426BD0EFF31085B5FA85F56D09B7
S214400F0072B6BFF35F8F0022374B1A70374B1C7890
S214400F10E4B2374B33F81430DBB9364A1388013322
S214400F2013802D4B984718B9324B1B88632B07D933
S214400F30294B984768B12F4B1B88B3F5487F08D29A
S214400F40002D44D00122284B1A70BFF35F8F62B643
S214400F503DE00022274B1A80274B1B7813F0FF0FEB
S214400F6005D1B4FA84F35B09204A137002E0B4FA60
S214400F7084F464090122174B1A7025B11A4B1A7073
S214400F80BFF35F8F62B62546194B33F81440403C9A
S214400F9018BF012464B1104B984720B1104B9847B6
S214400FA00E4B188007E00F4B98470C4B188002E01A
S214400FB000220A4B1A800E4B33F815300F4A009227
S214400FC0812021460E4A02EB85120E4CA04703B004
S214400FD030BD704748140020812F40004014002048
S214400FE0E92F4000D92F4000A3000020AC1300207A
S214400FF0B013002044140020DC14002009104000E8
S214401000B41300208533400088B908B5084B1B78D8
S21440101013F0FF0F0CBF01220022064B23F81200EC
S214401020054B1870054B1870054B984708BD704720
S214401030AC130020B0130020DC140020481400201D
S214401040C90E400008B50020014B984708BD00BFB8
S214401050C90E4000EFF3108272B6BFF35F8F0021D7
S2144010600A4B19700A4B188880B20A4B1B78DBB2C1
S214401070094931F813309BB2181A2AB90122034B9A
S2144010801A70BFF35F8F62B6704700BFA3000020A0
S2144010903C140020A81300203414002008B5034B4D
S2144010A09847003018BF012008BD00BF55104000CB
S2144010B010B582B0EFF31083B3FA83F35B0972B6D0
S2144010C0BFF35F8F0021214A1170214A1278D4B2B3
S2144010D0204A127812F0FF0F08D11F4A118889B2B1
S2144010E01E4A32F8142092B2914208D253B30122DB
S2144010F0164B1A70BFF35F8F62B6002023E00021C4
S214401100154A1180B4FA84F2520911490A70012135
S214401110104A117023B10D4B1970BFF35F8F62B642
S21440112000200F4B984710B100200E4B98470E4BAF
S2144011300093022001210D4A02EB841240230C4CFE
S214401140A04700E0002002B010BD00BFA300002072
S214401150A8130020D81400203C140020341400208B
S2144011609D1040007D0D40000512400058140020A0
S2144011708533400010B50024154B1C70154B1C7071
S214401180154B1C70154B1C70154B1C805C80154B0A
S2144011901C802046144B9847144B1C70144B1C70F4
S2144011A0144B1C805C80144B1C802046134B984785
S2144011B0014658B1064A13780133DBB213701378F0
S2144011C0DBB2012B02D101220D4B1A70084610BD2E
S2144011D0A913002048140020DC140020AC13002083
S2144011E0B013002040140020C90E4000D814002040
S2144011F0A8130020341400203C140020B1104000F6
S21440120042140020F8B910B582B00F4B1B7813F08B
S214401210FF0F0CBF0123002351B90C490091104623
S21440122001210B4A02EB831240230A4CA04708E0F8
S21440123089B2094A22F813100020084B1870084B50
S214401240984702B010BD7047A81300200512400012
S214401250581400208533400034140020D814002051
S214401260B11040002DE9F047224B93F80680B8F1C4
S214401270090F14BF4FF000084FF001084FF0000A66
S2144012801D4CD14657461D4D1D4EEFF3108072B68D
S214401290BFF35F8F27702B889BB23278D2B2194942
S2144012A031F8121089B220B901202070BFF35F8F49
S2144012B062B68B4207D3144B1B7813F0FF0FE4D172
S2144012C00020BDE8F08703EB82121049885C4AEAAA
S2144012D0000A01339BB22B8048460D4B9847B8F125
S2144012E0000F03D04FEA0A2AC846CEE75046BDE86C
S2144012F0F08700BFA0130020A30000203C1400206D
S214401300A813002034140020421400205814002053
S214401310B110400008B50020014B984708BD00BFFB
S21440132065124000EFF3108272B6BFF35F8F002164
S214401330134B1970134B1B78DBB2134931F813006B
S214401340402812D11149097811F0FF0F0DD11049EC
S214401350097811F0FF0F08D101200D490870B3FA43
S21440136083F35B0907490B700020C0F140002AB99F
S2144013700122034B1A70BFF35F8F62B6704700BFFF
S214401380A3000020AC130020B01300204814002017
S214401390DC14002008B5034B9847003018BF0120E6
S2144013A008BD00BF2513400008B50020014B9847F4
S2144013B008BD00BF951340002DE9F0410C461B4B7D
S2144013C09D79092D14BF00250125194E194FDFF8C8
S2144013D074800020B04730B9174B1B7813F0FF0FCE
S2144013E0F7D1BDE8F081EFF3108172B6BFF35F8F9F
S2144013F000233B7098F80030DBB2104830F81320DA
S21440140002F1010E20F813E002EB83130C4AD45489
S21440141021B901233B70BFF35F8F62B615B124122A
S2144014200025D6E70120BDE8F08100BFA0130020CC
S21440143095134000A300002042140020B013002063
S214401440B4130020AC13002008B501460020014B21
S214401450984708BDB91340000F4B1B681A6853885D
S2144014601A4403781844904210D24378042B0FD085
S2144014708B4205D170474378042B0BD08B420AD061
S214401480037818449042F6D30020704700207047F7
S2144014900020704700207047E414002008B5034B36
S2144014A0987800F07F00024B984708BD0016002051
S2144014B0852F4000164B1B780BB3164B1B681B68DA
S2144014C01A7982421DD910B4134A13605C881C44B2
S2144014D0A34218D25A78042A09D19A78824206D171
S2144014E0DA788A4203D10C4A136001200CE01A785D
S2144014F01344A342EED3084A1360002004E00020C1
S21440150070470020704700205DF8044B704700BFCE
S214401510F0140020E4140020F41400202DE9F843D1
S21440152004460021124B98478046E8B1114B1B6891
S2144015305B6853F82490D9F80C309847014620460B
S2144015400B4B9847804678B10B4B1C6805260B4DD5
S2144015500B4F20463146A847044610B18078B8471E
S214401560F7E7D9F8043098474046BDE8F88300BF0F
S214401570B5144000E4140020F41400205914400030
S214401580013140002DE9F0418046104B9847034614
S214401590C8B10F4B1C6805260E4D0F4F20463146EE
S2144015A0A847044638B18078E178A288B847034611
S2144015B00028F3D107E0094B1B685B6853F82830D6
S2144015C01B68984703461846BDE8F081B5144000AE
S2144015D0F414002059144000F92F4000E414002071
S2144015E008B5014B984708BDBD2E400070B50D4B61
S2144015F01B7883B10C4B1B681B681B795BB10024BE
S2144016000A4E094D2046B0470134E4B22B681B68A9
S2144016101B79A342F6D80022024B1A700122044BD3
S2144016201A8070BDF0140020E41400201D15400000
S214401630EE14002038B50C4B1B789BB10B4B1B6847
S2144016401A68127972B10024084D5B6853F824304A
S2144016501B6903B198470134E4B22B681A681279C3
S214401660A242F2D838BD00BFF0140020E414002097
S214401670F8B5904B00229A811A615A611B7813F094
S214401680800F00F0D2818B4AD288002A40F0D18168
S214401690C7E113F01F0365D18649497806290BD068
S2144016A0082957D000295DD1022A40F06A81824835
S2144016B00221824B9847C0E17E4B5A88130A013B71
S2144016C00E2B00F25581DFE813F00F0016003400B1
S2144016D05301530153015301530153015301530125
S2144016E05301530153012A00754B1B68184619785D
S2144016F0724B984725E0D2B2714B1B685B7C934295
S21440170040F23F816E4B5B6853F83230184659883A
S2144017106A4B9847674B9B6802225A7011E0684BA9
S2144017209B68002B00F02D8118465988634B9847DC
S21440173007E012F0FF0F40F02481624804215F4B1F
S21440174098475C4BDA889B89934240F27681594BA6
S2144017509A8172E1012A40F014815B480121574B7F
S21440176098476AE1012B27D1524949780A2923D163
S214401770012A40F00681544B1B78002B00F0018173
S2144017804C4B1C79514B1D682B681B79A34240F289
S214401790F880204600214E4B9847002800F0F18004
S2144017A06B6853F82430DB6898474A4B18701846E5
S2144017B00121424B984740E1022B40F0E2803D4BEE
S2144017C05B78002B40F0D680022A40F0DA80394B16
S2144017D01879414B9847414B188018460221374BA1
S2144017E098472AE113F01F0340F08280314A52782E
S2144017F0013A082A7CD8DFE812F012007B00BF00CE
S2144018007B0009007B007B007B002200294BDB88A5
S214401810002B40F0B680324A264B1A610DE1254B2C
S214401820DB88002B40F0AD80224B5B88012B40F0DC
S214401830A880214A138823F002031380FDE01D4B45
S214401840DB88002B40F09D80264B9847002800F010
S2144018509880184B9A781A4B1B685B7C9A4200F328
S2144018609080214B9847134B9B78174A1370002B58
S21440187000F0E38003F10053013B114A526802EB4B
S214401880C3001249086052F833301B79002B00F031
S214401890D48000242646154D0F4620463146A8479C
S2144018A000286ED00134E4B23B681B681B79A34223
S2144018B0F3D8C2E000160020EE140020ED2F4000C2
S2144018C0300000202C000020F0140020E4140020FB
S2144018D0B5144000EC14002069314000E8140020A4
S2144018E09D144000BD2F4000ED154000851540007A
S2144018F0012B19D1524A52780B2A15D1504BDB880E
S214401900002B3ED14F4B1B78002B3AD04C4B1C79CA
S2144019105D8820464C4B9847002832D02046E9B296
S2144019204A4B984703462AE0022B2AD1444B5B7821
S214401930012B02D0032B0CD020E0414BDB8803BBAD
S2144019403F4B5B88EBB93E4B1879414B9847034673
S21440195015E03B4BDB88A3B9394B5B888BB9384CD9
S21440196020793C4B984720793B4B9847034606E006
S214401970002304E0002302E0002300E00023002BC5
S2144019805CD12F4B1B7803F01F03012B1ED12D4B30
S2144019901B78DBB12A4B1C79304B1D682B681B79B2
S2144019A0A34213D9204600212D4B984770B16B684F
S2144019B053F82450EB68984701462046284B9847F2
S2144019C020B1AB6898470346002837D11C4B1B789C
S2144019D003F01F03022B26D11A4B1B78EBB11F4B8B
S2144019E01A6813681B79D3B100241D4E1B4F5368E9
S2144019F053F82450EB68984701462046B0470346C4
S214401A00E0B1AB6898470346C0B90134E4B23A68DF
S214401A1011680979A142EAD810E000230EE00023BD
S214401A200CE000230AE0002308E013F0600FA8D182
S214401A30D8E613F0600FA4D12BE601231846F8BD74
S214401A4000160020F01400201D15400085154000AB
S214401A5095324000F9344000A9314000E41400209B
S214401A60B5144000A8B92DE9F0410C469046002A2E
S214401A700ADD8F18084E094D306821462B68984776
S214401A800134BC42F8D101E04FF000084046BDE8C2
S214401A90F0814FF0FF3070471C160020FC150020E8
S214401AA008B5064B1B783BB10846054B9847B0FA3D
S214401AB080F04009404208BD002008BDF8140020D0
S214401AC049144000054B1B780BB90B70704710B596
S214401AD00C46034B9847207010BD00BFF8140020FA
S214401AE01513400070B500240A4B1C600A4A0B4B85
S214401AF01A600B4A0B4B1A600B4B98470B4E3368D9
S214401B00986821460A4DA847336858682146A84732
S214401B1070BD00BF1C160020A11A400018160020F9
S214401B20C51A4000FC150020E1154000D0040020F6
S214401B30AD45400030B4012404600024446040F2C7
S214401B400225C0F82051C0F80441C0F81441456849
S214401B502B435200B1FBF2F14A1E120292B21343DB
S214401B604360204630BC7047436823F01003436010
S214401B70436819434160704710B4446822430906DD
S214401B8001F070610A431B0703F040531343436060
S214401B905DF8044B704700BF02230360704700BFE8
S214401BA001238B400361704710B489014318022417
S214401BB044504FF0FF319962196A5A605DF8044B01
S214401BC0704700BF890105234350704700EB8111E1
S214401BD0CA61704700EB81114A62704700EB811181
S214401BE0086A7047F0B486B0022401940824029430
S214401BF020240394802404940A9CE40B05944C0C03
S214401C00B0EB510F1BD8A0421FD201AE012556F8AB
S214401C10044FB1FBF4F4270C844212D3874215D903
S214401C200135052DF3D1002013E006A901EB85010F
S214401C3051F8141C116033B11D60012009E00020EA
S214401C4007E0002005E0012003E00025002AECD153
S214401C50F1E706B0F0BC70472DE9F8438146884668
S214401C60124B984705464846114B9847054013D0B7
S214401C70104C04F160062368434508D16168294248
S214401C8005D0E36840469847636825EA0305B442B2
S214401C9002D01034002DEED1074B1B6823B1074B02
S214401CA01B680BB148469847BDE8F8831D3940008D
S214401CB0213940000015002020160020FC1400208A
S214401CC008B502480B21024B984708BD000E0E404F
S214401CD0591C400008B502480C21024B984708BDE5
S214401CE000100E40591C400081607047C16070472C
S214401CF040697047436913F0020F1ABFC161002064
S214401D0001207047436913F0010F1DBF83690B70B4
S214401D1000200120704700BF034A0023136153612F
S214401D209381024A1370704700160020B4150020B5
S214401D3082B005220E4B1A700E4A136B0093009B1E
S214401D4043F04F030093009B43F020030093009B17
S214401D50136300230193019B132B06D800BF019BFE
S214401D6001330193019B132BF8D902B0704700BF93
S214401D70B41500200040034082B003220E4B1A7078
S214401D800E4A136B0093009B43F04F030093009B57
S214401D9043F010030093009B136300230193019BC1
S214401DA0132B06D800BF019B01330193019B132BD5
S214401DB0F8D902B0704700BFB41500200040034079
S214401DC008B5024B1B6903B1984708BD00160020B2
S214401DD030B58BB0754B1B78032B1DD1744A136BF3
S214401DE00093009B43F04F030093009B23F00103B6
S214401DF00093009B136300230193019B132B06D88B
S214401E0000BF019B01330193019B132BF8D9694B0B
S214401E109847694B9847C6E0684B1A88684B9C8938
S214401E20A41AA4B2002C33D166490B8813449BB243
S214401E300B80634AD2889A4202D0634B1B78EBB140
S214401E4004225A4B1A705A4A136B0293029B43F071
S214401E504F030293029B23F001030293029B1363FA
S214401E6000230393039B132B00F29D8000BF039B2C
S214401E7001330393039B132BF8D994E0504B5B69D3
S214401E806BB1984758B100224C4B1A804C4B9C89FA
S214401E903F2C04D900224C4B1A70402402E0012209
S214401EA0494B1A70464B9968444B1B88EFF3108099
S214401EB0B0FA80F0400972B6BFF35F8F0025434A00
S214401EC015703B4A126B12F0020F01D124BB2DE075
S214401ED028B101223D4B1A70BFF35F8F62B60422D1
S214401EE0324B1A70324A136B0493049B43F04F03F1
S214401EF00493049B23F001030493049B1363002381
S214401F000593059B132B4ED800BF059B01330593C5
S214401F10059B132BF8D946E019440A46244D12F87F
S214401F20013B2B65531ADBB2A342F8D3234A1388EE
S214401F301C4414801E4A136B0693069B43F04F03C3
S214401F400693069B43F010030693069B13630023F9
S214401F500793079B132B06D800BF079B01330793B5
S214401F60079B132BF8D9124A136B0893089B43F030
S214401F704F030893089B23F001030893089B1363C1
S214401F8000230993099B132B06D800BF099B0133F6
S214401F900993099B132BF8D928B101220B4B1A70D1
S214401FA0BFF35F8F62B60BB030BD00BFB4150020E4
S214401FB000400340C11D4000191D4000B2150020DE
S214401FC00016002070150020B5150020A300002044
S214401FD038B50346447C14F0100F15D0447C6FF39C
S214401FE00414447405687DB102F10C04074850F8A7
S214401FF0240010F4806F18BF42F08002012914BFFD
S214402000002001209968A84738BD00BF0040034023
S21440201030B484B0421E830003F1402303F54033BE
S214402020196B1C6B11F0020F0CD014F0400F13D13B
S21440203002EB8201324C04EB81014C7C6FF383044B
S2144020404C7409E002EB82012D4C04EB81014C7C80
S214402050012565F383044C7402EB8201284C04EBA3
S2144020608101497C11F00C0F25D1196B0091009924
S21440207041F04F010091009921F002010091009932
S214402080196300230193019B132B06D800BF019BC5
S21440209001330193019B132BF8D968B303282BD047
S2144020A002EB8202164B03EB82035A7C012161F35A
S2144020B083025A7420E0196B0291029941F04F0155
S2144020C00291029921F0400102910299196300237E
S2144020D00393039B132B06D800BF039B0133039344
S2144020E0039B132BF8D902EB8202054B03EB8202CB
S2144020F0537C6FF38303537404B030BC704700BF07
S214402100741500202DE9F04383B08646461E06EB44
S21440211086026C4B03EB820393F81180C8F3810868
S21440212020B103280CBF0123022300E001234345CE
S21440213040F3BE8006EB8603624A02EB8303DA680E
S2144021409B689A4209D306EB86045E4D05EB8404F1
S214402150647C14F0400F00F0AD8006EB8607594CC7
S21440216004EB87077C6814449D1A3B8AC3F309072F
S214402170BD423ABF2F464FF0010C4FF0000C06EB25
S2144021808603504D05EB83033A44DA60072F33D974
S21440219004F108033D46820002F1402202F5403237
S2144021A013F8089CC2F8509013F8079CC2F8509059
S2144021B013F8069CC2F8509013F8059CC2F850904D
S2144021C013F8049CC2F8509013F8039CC2F8509041
S2144021D013F8029CC2F8509013F8019CC2F8509035
S2144021E0083D0833072DDBD8A7F1080323F0070383
S2144021F008331C4407F007074FB1E319324F14F871
S214402200015B0EF1140247F822509C42F7D106EBD0
S21440221086032C4A02EB830308F101085A7C68F3D4
S21440222083025A74E1B1800000F1402000F540304E
S214402230036B0093009B43F04F030093009B43F0D7
S21440224010030093009B036300230193019B132B11
S21440225006D800BF019B01330193019B132BF8D98D
S214402260BCF1000F08D006EB8603164A02EB830348
S2144022705A7C6FF386125A7406EB8603114A02EBB9
S2144022808303DA689B689A4216D306EB86030D4AA8
S21440229002EB83035B7C13F0400F0FD106EB860600
S2144022A002EB8606737C43F080037374002006E0DE
S2144022B0012004E0002002E0012000E0012003B0FD
S2144022C0BDE8F083741500200040034010B4044677
S2144022D0002835D11E4B1B787BB31E4B9B7803B929
S2144022E0FEE7EFF3108372B6BFF35F8F00211A4A02
S2144022F0117018498A78013A8A70F3B90122164B50
S2144023001A70BFF35F8F62B617E0124B9B78FF2BB5
S21440231000D1FEE7EFF3108372B6BFF35F8F002164
S2144023200D4A11700B498A7801328A702BB9012206
S214402330094B1A70BFF35F8F62B6054B1C7004E002
S214402340034B1B78002BF8D1DFE75DF8044B704752
S214402350B0150020F4150020A30000202DE9F04F12
S214402360B1B0954B984760B9944BDB6913F4807FC6
S21440237007D172B6BFF35F8F0022914B1A7000F000
S21440238054BD22208F4B98478C4B9B6913F4006FAB
S2144023900CD08A4BDB6913F4006F07D04FF4006211
S2144023A0864B1A62884B984700F03FBD834BDB69EB
S2144023B013F0010F00F0F281804B1B6B13F0040FFB
S2144023C000F0C080814B1B781BB1814B9847814BF6
S2144023D098477A4B1B6BC3F30A43082B1CD0774AAB
S2144023E0136B0293029B43F04F030293029B23F02E
S2144023F004030293029B136300230393039B132B54
S21440240006D800BF039B01330393039B132BF8D9D5
S214402410714B984700F009BD704B03F108006749BF
S2144024200A6D03F8012F8342FAD16D4B9847E0B905
S214402430624A136B0493049B43F04F030493049B3C
S21440244023F004030493049B136300230593059B26
S214402450132B06D800BF059B01330593059B132B12
S214402460F8D95D4B984700F0E0BC5E4B93F90030DE
S214402470002B3DDA514A136B0693069B43F04F03FD
S2144024800693069B43F080030693069B1363002344
S2144024900793079B132B06D800BF079B0133079370
S2144024A0079B132BF8D9454A136B0893089B43F0B8
S2144024B04F030893089B23F004030893089B136379
S2144024C000230993099B132B06D800BF099B0133B1
S2144024D00993099B132BF8D90023434A1380434A98
S2144024E013800222394B1A70414B984700F09DBC2E
S2144024F0324A136B0A930A9B43F04F030A930A9B94
S21440250023F004030A930A9B136300230B930B9B4D
S214402510132B06D800BF0B9B01330B930B9B132B3F
S214402520F8D9304BDB881BB9324B984700F07DBC5E
S21440253000232D4A13802D4A13800122234B1A7004
S21440254000F073BC1D4B1B6B13F0010F03D0284BE0
S214402550984700F06ABC194B1B6B13F0020F00F053
S21440256018811A4B1B78012B46D0022B01D0042B26
S21440257002D1174B984701E0174B98470F4A136B09
S2144025800C930C9B43F04F030C930C9B23F00203DD
S2144025900C930C9B136300230D930D9B132B06D8B3
S2144025A000BF0D9B01330D930D9B132BF8D9094BA0
S2144025B0984700F03ABC00BF093B4000004003404B
S2144025C0A30000202D3A400035164000B4150020E8
S2144025D0C11D4000191D4000311D4000FF15002060
S2144025E0711640000016002070150020B21500201D
S2144025F0D11D4000791D4000924B196BC1F30A4132
S214402600914B9B89914A15886A189342AEBF89B20E
S2144026105B1B99B28C4B98682844A9B10246894CFA
S214402620236D02F8013B131ADBB28B42F8D30D44FC
S214402630ADB2864B1D80402906D1834BDA88844B49
S2144026401B882B449A423EDC7F4B9D815B69F3B1ED
S2144026509847E0B97F4B98477A4A136B0E930E9B88
S21440266043F04F030E930E9B23F002030E930E9BF4
S214402670136300230F930F9B132B00F2D68300BFE8
S2144026800F9B01330F930F9B132BF8D9CDE36D4A65
S214402690136B1093109B43F04F031093109B23F043
S2144026A002031093109B136300231193119B132B6B
S2144026B006D800BF119B01331193119B132BF8D9F9
S2144026C0654B9847B1E3604B9B89AB4246D15E4B26
S2144026D05B69E3B95F4B98475A4A136B1293129B58
S2144026E043F04F031293129B23F002031293129B64
S2144026F0136300231393139B132B00F2968300BFA0
S214402700139B01331393139B132BF8D98DE39847F0
S214402710E0B9504B98474B4A136B1493149B43F0C5
S2144027204F031493149B23F002031493149B1363D8
S21440273000231593159B132B00F2778300BF159B40
S21440274001331593159B132BF8D96EE340493F4A46
S21440275010880B8803440B8000231380394A136B80
S2144027601693169B43F04F031693169B23F00203D3
S2144027701693169B136300231793179B132B00F295
S214402780548300BF179B01331793179B132BF8D91D
S2144027904BE32C4B1B6B13F0080F06D12F4F3946DB
S2144027A00123DFF8A0E018461AE0264A136B009390
S2144027B0009B43F04F030093009B23F008030093D5
S2144027C0009B136300230193019B132B00F22D8380
S2144027D000BF019B01330193019B132BF8D924E3DF
S2144027E0DEB2DEF818201D4600FA03F4144200F06C
S2144027F0208203F1FF3889469A0002F1402202F512
S2144028004032D2F830C01CF0420F52D008EB88035A
S214402810124A02EB83039A68D968B3F810A0CAF349
S214402820090A5B68AD0005F1402505F540352F6B7C
S214402830C7F30A47002F00F0ED82501AB84240F224
S214402840DD82CCE20040034000160020B215002096
S21440285070150020311D4000791D40007415002081
S2144028604FF0010B19440B462A6D03F8012B5A1AF8
S2144028709042F9D83046A54B9847BBF1000F02D19D
S214402880BA4540F2D2822B6B13F0200F40F0CD8237
S2144028909F4B5C619F4B4FEA880202EB080103EBBB
S2144028A08101CB688B604846002132469A4B984758
S2144028B0BBE2D2F830C01CF0010F00F0908108EB6C
S2144028C08802944B03EB8202537CC3F381010331AD
S2144028D061F383035374537C13F0200F78D013F0C6
S2144028E00C0F36D0AA0002F1402202F54032136B9C
S2144028F01893189B43F04F031893189B43F010030C
S2144029001893189B136300231993199B132B06D80F
S21440291000BF199B01331993199B132BF8D9136BDE
S2144029201A931A9B43F04F031A931A9B23F0010302
S2144029301A931A9B136300231B931B9B132B00F2C3
S214402940748200BF1B9B01331B931B9B132BF8D930
S2144029506BE2AA0002F1402202F54032136B1C9350
S2144029601C9B43F04F031C931C9B23F001031C93BA
S2144029701C9B136300231D931D9B132B06D800BF7F
S2144029801D9B01331D931D9B132BF8D9136B1E9370
S2144029901E9B43F04F031E931E9B43F020031E9343
S2144029A01E9B136300231F931F9B132B06D800BF49
S2144029B01F9B01331F931F9B132BF8D908EB8808E6
S2144029C0544B03EB88035A7C6FF345125A742CE23F
S2144029D013F0800F0FD008EB88024E4B03EB8203B8
S2144029E0597C6FF3C7115974DA689A6048460021DB
S2144029F03246494B984708EB8803464A02EB830326
S214402A00DA689B689A4238D308EB8802414B03EB5E
S214402A1082035B7C13F04C0F2FD1EFF3108372B61A
S214402A20BFF35F8F00213D4A1170394A54612BB97C
S214402A3001223A4B1A70BFF35F8F62B6AB0003F1C8
S214402A40402303F540331A6B2092209A42F04F02FF
S214402A502092209A22F001022092209A1A630023A4
S214402A602193219B132B00F2E08100BF219B013371
S214402A702193219B132BF8D9D7E1002E00F08C80B0
S214402A80032E00F0898008EB8802224B03EB82037A
S214402A905B7C13F00C0F45D0AA0002F1402202F5F1
S214402AA04032136B2293229B43F04F032293229B88
S214402AB043F010032293229B136300232393239B0C
S214402AC0132B06D800BF239B01332393239B132B42
S214402AD0F8D9136B2493249B43F04F032493249BF1
S214402AE023F001032493249B136300232593259B03
S214402AF0132B06D800BF259B01332593259B132B0C
S214402B00F8D930460021064B98478EE11120400008
S214402B100040034074150020D11F4000A300002051
S214402B200521400030460121694B984790B914234F
S214402B30684A03FB082898F811206FF3C71288F8F4
S214402B401120D8F80C30C8F80830484600213246E4
S214402B50614B9847AB0003F1402303F540331A6BB3
S214402B602692269A42F04F022692269A22F0010298
S214402B702692269A1A6300232793279B132B06D860
S214402B8000BF279B01332793279B132BF8D930464A
S214402B9000214F4B984748E1304601214C4B98471F
S214402BA0AB0003F1402303F540331A6B2892289A72
S214402BB042F04F022892289A22F001022892289A40
S214402BC01A6300232993299B132B00F22E8100BF02
S214402BD0299B01332993299B132BF8D925E1126BA6
S214402BE012F0080F25D09B0003F1402303F5403335
S214402BF01A6B2A922A9A42F04F022A922A9A22F076
S214402C0008022A922A9A1A6300222B922B9A132A97
S214402C1006D800BF2B9A01322B922B9A132AF8D94A
S214402C201A6B02F4E062B2F5807F00F0FE801B6B08
S214402C30FBE001331431042B7FF4D2ADEEE0274B9A
S214402C40DB6913F4005F13D1244B9B6913F4007FB8
S214402C5004D0224BDB6913F4007F09D11F4B9B69DC
S214402C6013F4806F14D01D4BDB6913F4806F0FD0C4
S214402C701A4C4FF41853236263610120184B98474F
S214402C804FF48073236223614FF400632361CCE0EA
S214402C90124B9B6913F4807F26D0104BDB6913F4EC
S214402CA0807F21D00D4B4FF480721A625A614FF4E8
S214402CB000521A614FF400721A614FF480621A6132
S214402CC02220084B98470020054B9847ADE000BFB0
S214402CD00521400074150020D11F400000400340ED
S214402CE0CD224000813A4000514BDB6913F4805FAF
S214402CF000F09B804FF480524D4B1A620024012610
S214402D004C4D0134E4B2384631462246A847143783
S214402D10032CF6D1484B9847454B5A6822F001029F
S214402D205A605A6822F002025A609A6842F48072E8
S214402D309A609A6822F07F029A601A6B2C922C9ABC
S214402D4042F04F022C922C9A22F4074222F0800244
S214402D502C922C9A42F400422C922C9A1A6300230E
S214402D602D932D9B132B06D800BF2D9B01332D93FF
S214402D702D9B132BF8D92E4A136B2E932E9B43F084
S214402D804F032E932E9B43F400432E932E9B1363A8
S214402D9000232F932F9B132B06D800BF2F9B013366
S214402DA02F932F9B132BF8D9EFF3108372B6BFF3F4
S214402DB05F8F0021214A117001211D4A116123B9FC
S214402DC01E4B1970BFF35F8F62B61D4B9847184B6A
S214402DD04FF480721A614FF400621A6125E008EBE6
S214402DE08800184A02EB80027818D06038464FF0C8
S214402DF0000B37E53046144B984744E508EB880C03
S214402E00DFF840E00EEB8C0ECEF80C2000287FF466
S214402E1027ADEFE730460C4B984731E5044B9B69AE
S214402E2013F4005F7FF40BAF0EE731B0BDE8F08FD0
S214402E3000400340D11F4000ED154000A300002095
S214402E40191D4000741500201120400010B5EFF306
S214402E50108472B6BFF35F8F0022144B1A700120A5
S214402E60134B98472220134B9847134B5A6F22F424
S214402E7080725A675A6F42F400725A674FF48072F3
S214402E801A614FF400521A614FF400721A614FF4FF
S214402E9080621A614FF400621A612CB90122034B1A
S214402EA01A70BFF35F8F62B610BD00BFA30000204C
S214402EB0CD2240002D3A40000040034038B5EFF3A5
S214402EC0108572B6BFF35F8F0024244B1C702220FF
S214402ED0234B9847234B9847234B502283F8222373
S214402EE004225A60234621489A00D11800EB8101FB
S214402EF0497C1A4400EB820201F083016FF3C7114C
S214402F0051740133032BEFD14FF48020184B984770
S214402F100022184B1A70184B1B78FF2B00D1FEE787
S214402F20EFF3108372B6BFF35F8F00210B4A117028
S214402F3011490A7801320A702BB90122074B1A70E0
S214402F40BFF35F8F62B60D4B98472DB90122034BF6
S214402F501A70BFF35F8F62B638BD00BFA300002073
S214402F602D3A4000E536400000E100E074150020B0
S214402F70F53A4000B0150020F41500204D2E4000D4
S214402F80002070470C4B5A6822F001025A609A683B
S214402F9022F480729A6070B19A6800F07F0022F046
S214402FA07F02104398609A6842F480729A605A682A
S214402FB042F001025A60704700400340054B5B6890
S214402FC013F0010F1DBF034B986800F07F000020F0
S214402FD0704700BF00400340024B1868C0F30A0029
S214402FE0704700BF0040034000207047014B986088
S214402FF09981704700160020F0B583B000F00F04AA
S214403000032C6CD8A30003F1402303F540331D6B1B
S21440301015F4004F65D101F00305012D03D1002CB6
S21440302061D0032C61D0251FEDB2022D34BF4FF482
S2144030300075402595425ADB661E06EB86072E4DE8
S21440304005EB870505F11007B5F810E062F3090EA9
S214403050A5F810E06A7C02F07F026FF345126A74AE
S214403060C00903D07A786FF383027A70234A966A4F
S214403070012505FA04F444EA06059562956A25EAB0
S214403080040494621A6B0092009A42F04F02009237
S214403090009A22F4074222F08002009238B141F0B2
S2144030A00402120202F4E06242F4004204E00A0221
S2144030B002F4E06242F4004200990A430092009A09
S2144030C01A6300230193019B132B12D800BF019B68
S2144030D001330193019B132BF8D901200AE000200D
S2144030E008E0002006E0002004E0002002E0002087
S2144030F000E0012003B0F0BD7415002000400340FE
S21440310000F00F02032A2AD800B583B0930003F1DB
S214403110402303F54033196B0091009941F04F016D
S2144031200091009921F40041009100991963002311
S2144031300193019B132B06D800BF019B01330193DB
S214403140019B132BF8D9501E00EB8000044B03EB79
S21440315080000121034B984703B05DF804FB70479D
S21440316074150020D11F400000F00F00032815D82A
S214403170431E03EB83030A4A02EB83035B7C13F094
S214403180200F09D10C30074B53F8203013F0280F8E
S21440319014BF012000207047012070470020704770
S2144031A0741500200040034000F00F01032961D849
S2144031B010B483B0EFF31082B2FA82F2520972B6BC
S2144031C0BFF35F8F0024304B1C7010F0800F28D068
S2144031D04B1E01F10C002D4C54F8200010F0100F3F
S2144031E009D103EB83002A4C04EB8000407CC0F3FB
S2144031F08100012815DD03EB8300254B03EB80039C
S214403200587C40F02000587401238B401F490B61C6
S214403210002A31D001201C4B1870BFF35F8F62B676
S2144032202DE08B0003F1402303F54033186B0090EC
S214403230009840F04F000090009840F0200000902A
S2144032400098186300230193019B132B06D800BFF8
S214403250019B01330193019B132BF8D901238B402B
S2144032600A490B6152B10120074B1870BFF35F8FBC
S21440327062B604E000207047012000E0012003B061
S2144032805DF8044B704700BFA30000200040034099
S2144032907415002000F00F00032867D8411E01EB8C
S2144032A08102364B03EB82035A7C6FF345125A7405
S2144032B0820002F1402202F54032136B13F0200FD9
S2144032C056D030B585B0136B0093009B43F04F0348
S2144032D00093009B23F020030093009B136300237E
S2144032E00193019B132B06D800BF019B013301932A
S2144032F0019B132BF8D9224B9D6A012404FA00F057
S21440330040EA05049C629C6A24EA00009862136BBB
S2144033100293029B43F04F030293029B23F0080361
S2144033200293029B136300230393039B132B06D83D
S21440333000BF039B01330393039B132BF8D901EB88
S21440334081030E4A02EB83035B7C13F0100F11D00F
S2144033508800431802EB83035C7C6FF304145C74B0
S214403360014452F821309847012004E0002070477D
S21440337001207047012005B030BD00BF7415002005
S21440338000400340F8B500F00F05032D00F29F8083
S214403390AC0004F1402404F54034266B16F4004F8C
S2144033A000F097806E1E06EB860E4F4F07EB8E079B
S2144033B07F7C17F0200F40F08E80276B17F0200F91
S2144033C040F08B80EFF31087B7FA87F77F0972B625
S2144033D0BFF35F8F4FF0000CDFF810E18EF800C0AF
S2144033E006EB860EDFF800C10CEB8E0E9EF811E061
S2144033F01EF0100F09D0002F71D001223B4B1A70DF
S214403400BFF35F8F62B60020F8BD06EB860EDFF88E
S214403410D8C00CEB8E0E9EF811C04CF0100C8EF8F7
S21440342011C03FB14FF0010E304F87F800E0BFF3B8
S2144034305F8F62B6DFF8B0C006EB8607BF000CEBC6
S214403440070ECEF804200EF10802CEF808304FF0F2
S214403450000EC2F804E0069A4CF8072019B9B3FAF1
S21440346083F35B0900E001231F49B700BA1901EB5B
S2144034708202527C63F386123E4401EB8606134674
S2144034806FF3C7137374EFF3108672B6BFF35F8F94
S2144034900022164B1A700123AB40154A136110F0F8
S2144034A0800F0CD0236B13F0110F08D12846012152
S2144034B0104B984718B1284600210E4B984786B9BE
S2144034C001200A4B1870BFF35F8F62B6F8BD00202C
S2144034D0F8BD0020F8BD0020F8BD0020F8BD002053
S2144034E0F8BD0120F8BD00BF74150020A3000020E1
S2144034F00040034005214000F0B589B000F00F04BD
S214403500032C00F2BA80EFF3108372B6BFF35F8FDE
S21440351000215B4A11700125A5405A4A55612BB9D6
S2144035200122574B1A70BFF35F8F62B610F0800FC0
S2144035300AD1A60006F1402606F54036336B13F056
S214403540420F40F0818086E0A20002F1402202F560
S2144035504032136B13F0100F53D0002C39D0032C8D
S21440356037D0136B0093009B43F04F030093009BB0
S21440357023F010030093009B136300230193019BE9
S214403580132B06D800BF019B01330193019B132BDD
S214403590F8D9136B13F0100FFBD1136B0293029BF9
S2144035A043F04F030293029B43F010030293029BA7
S2144035B0136300230393039B132B06D800BF039B80
S2144035C001330393039B132BF8D9136B13F0100F9F
S2144035D0FBD0136B0493049B43F04F030493049B6C
S2144035E023F010030493049B136300230593059B69
S2144035F0132B06D800BF059B01330593059B132B61
S214403600F8D9136B0693069B43F04F030693069B2D
S21440361023F001030693069B136300230793079B3F
S214403620132B06D800BF079B01330793079B132B2A
S214403630F8D9631E03EB8302134B03EB82035A7CD9
S2144036406FF383025A7406E0104F2046B847336B38
S21440365013F0420FF9D10B4B9A6A2A439A629A6A40
S21440366022EA05059D62601E00EB8000064B03EBD8
S214403670800001212246064B984709B0F0BD00BFA6
S214403680A300002000400340741500201120400095
S214403690D11F40000138022818D82DE9F0410E46C7
S2144036A0144682B10D46DFF838800C4FD8F800003B
S2144036B015F8011B3B68984700280ADBA81B013C0D
S2144036C0F4D1BDE8F0810020BDE8F0814FF0FF3036
S2144036D070474FF0FF30BDE8F08100BF181600205D
S2144036E01C16002010B500203E210A4B98470A4C75
S2144036F0A0470028FCD0094B9847094A094BDA6294
S214403700094CA0470028FCD00120084B9847084B9E
S214403710984710BD8D394000E1394000113A4000CD
S214403720023F0F0000040E401D3A4000D53A4000CC
S214403730E93A400010B50E480E4B984700203E210F
S2144037400D4B98470D4CA0470028FCD00C4B984793
S2144037500C4A0D4B9A620D4CA0470028FCD0102016
S2144037600B4B98470B4B98470148024B984710BD68
S214403770000E27078D3E40008D394000E13940005D
S214403780F1394000013F132000040E40013A40004A
S21440379025394000793D40004264B1F1C05F2FD0EA
S2144037A007D8B1F1006F14D0B1F1805F1ED039B99F
S2144037B07047B1F1205F37D004D8B1F1005F29D00F
S2144037C042607047B1F1405F2ED0B1F1605F2BD0C0
S2144037D0F6E710B4016F046FD343214019400167E8
S2144037E0416F446F21400B4043671AE0036F134319
S2144037F00367436F416F0B4023EA02034367DFE7EB
S214403800036F016F0B4023EA02030367436F1343C2
S2144038104367D5E7036F13430367436F1343436719
S214403820CEE742605DF8044B704700BF416412F03B
S214403830010F14BF4166016612F00A0F14BF016201
S214403840416212F0020F02D0C0F8801004E012F07D
S214403850080F18BFC0F8841041610160704700BF70
S21440386010B44164019C0CB1416600E001660BB1A6
S214403870016500E041650AB1016300E04163016112
S21440388001605DF8044B7047F0B583B007460C46C0
S21440389016461D46B1F1005F14D009D8B1F1805FDD
S2144038A010D0B1F1C05F0DD0B1F1006F2CD109E05E
S2144038B0B1F1405F18D0B1F1605F15D0B1F1205F33
S2144038C00CD021E0384621463246114B984715F039
S2144038D0010F14BF7E663E66012016E011461A466A
S2144038E00C4B9847012010E005F001030093384642
S2144038F03146B4F1605F14BF00220122C5F3800355
S214403900054CA047012000E0002003B0F0BD00BFFA
S214403910993740002D38400061384000C06C7047F1
S214403920806C7047184A136B23F07003184310637B
S214403930936E13F0080F03D009E0013B03D11EE05D
S2144039404FF4006310498A6E12F0080FF5D00E4A05
S214403950136B23F0030343F002031363906E10F0DF
S214403960080004D000207047013B03D109E04FF423
S214403970006305498A6E12F0080FF5D070470120A3
S21440398070470120704700BF00040E4038B111490F
S2144039900B6A114A1A40114B13430B6270470D4A8B
S2144039A0136A23F45C1323F0030343F45C1343F0DD
S2144039B00103090289B20B431362936E13F0010FA1
S2144039C0FBD0044A136A43F09B7343F4803313627C
S2144039D0704700BF00040E40FCFFC8FE02003701DF
S2144039E0024B986E00F48030704700BF00040E40D3
S2144039F04FF00052014B9A62704700BF00040E40E1
S214403A00024B986E00F00200704700BF00040E4064
S214403A100022014BDA62704700040E40024B986E5B
S214403A2000F00400704700BF00040E4022281ED855
S214403A301F280CD8114B9A69012383401A409342A1
S214403A4017D0012383400D4A1361002070470B4B6B
S214403A50D3F808212038012383401A4093420AD0E5
S214403A6001238340054AC2F80031002070470120F8
S214403A707047002070470020704700BF00040E408B
S214403A8022281ED81F280CD8114B9A690123834040
S214403A901A40934217D1012383400D4A53610020B8
S214403AA070470B4BD3F808212038012383401A4037
S214403AB093420AD101238340054AC2F804310020CC
S214403AC0704701207047002070470020704700BFB5
S214403AD000040E40000200F4706040F00100014B0C
S214403AE09863704700040E408022014B1A6070476E
S214403AF000040E40034A136FC0F3120003431367DB
S214403B00704700BF00040E40024B187880F001005A
S214403B10704700BFB615002038B54FF40042124B30
S214403B205A601D20114B9847114C20461149124AA5
S214403B304FF40073114DA847204600214FF4401221
S214403B4001230F4DA847204600210E4B984720469C
S214403B5003210D4B984720460C4B98474FF47A70FC
S214403B600B4B984738BD00BF50140E402D3A4000CE
S214403B7000800340001C4E0E00879303351B400018
S214403B80791B4000691B4000A11B4000991B400068
S214403B90E108400010B40B0193420FD91CE002F03C
S214403BA00702416841F40021416043EA0242026252
S214403BB000201EE001201CE001201AE0D20002EBAB
S214403BC05302B2FBF3F2D3085C1E4FF6FE718C42F2
S214403BD0F0D802F00702E8E7C900D20002EB510233
S214403BE0B2FBF1F2D3085C1E4FF6FE718C42D6D97A
S214403BF0E2E75DF8044B70470A4BC0F8E430002318
S214403C0043604362836288230360242303604FF447
S214403C10807303604FF4002303604FF40033036067
S214403C20704700BF0041535570B505460C461646D2
S214403C300F4B984700220F4B1A609CB128462168CC
S214403C4032460D4B9847024670B9A16863681943DF
S214403C5023691943E3680B4306490B6069680B43C5
S214403C606B6002E0012200E00122104670BD00BFFA
S214403C70F93B4000B8150020953B400040230360C8
S214403C80704700BF10230360704700BF81607047D5
S214403C90C160704740697047436913F0020F1DBF0B
S214403CA0C1F30801C161002001207047436913F049
S214403CB0010F05D08369C3F308030B6000207047EB
S214403CC001207047FEE700BF08B5204B204A9A42C5
S214403CD013D9204B1D4A9A421FD211460432033351
S214403CE09B1A23F003030433194A134452F8040B77
S214403CF041F8040B9A42F9D10FE0144B144A9A4209
S214403D000BD2144B114A9A1A134881182AB151F80B
S214403D10042943F8042D8142F9D100BF0F4B104AC5
S214403D209A420BD2131D0F4AD21A22F003021A44AB
S214403D30043B002143F8041B9342FBD10A4B0B4A39
S214403D409A600B4B98470B4B9847FEE700000020C5
S214403D50F04F4000E4080020EC4F400028160020BA
S214403D60E40800202B16002000ED00E00000400094
S214403D70613F4000A10A40003D4B1B6B03F003032C
S214403D80032B5DD8DFE803F0020E2B2B394B5B6923
S214403D9013F0800F14BF4FF400424FF4FA42364BF4
S214403DA01A604DE0324B1B6A13F0807F03D0334AD3
S214403DB0314B1A6044E0324A2F4B1A602C4B1B6A38
S214403DC003F07003102B02D0202B04D038E02D4A8D
S214403DD0294B1A6034E0294A274B1A6030E0244BBE
S214403DE01B6A13F0807F03D0244A234B1A6012E0EC
S214403DF0234A214B1A601E4B1B6A03F07003102B9C
S214403E0002D0202B04D006E01E4A1B4B1A6002E06C
S214403E101A4A194B1A60164B1B6B03F00303022B0E
S214403E20134A07BF936A926AD36AD26A1248C3F3A8
S214403E300A41036801FB0333D2B2B3FBF2F30360DB
S214403E400B4B1B6B03F07003702B07D10A4A1368A9
S214403E500D49A1FB03135B0813607047044B1A6BB4
S214403E600549C2F302120B68D3400B60704700BF8F
S214403E7000040E4010140E40A4000020001BB700A3
S214403E8000093D0000127A00ABAAAAAA124B98423B
S214403E9004D84FF08062114B1A607047104B98421E
S214403EA003D8104A0D4B1A6070470F4B984203D800
S214403EB00E4A0A4B1A6070470D4B984203D80D4A7B
S214403EC0064B1A6070470C4B984294BF4FF0042242
S214403ED00A4A024B1A607047FF2C3101000A0E4016
S214403EE0FF59620200010004FF86930300020004AB
S214403EF0FFB3C40400030004FFE0F505000500041A
S214403F00094B1B6813B9094A074B1A60064B1B68D6
S214403F101A180749914204DB1046034A10601846B7
S214403F2070474FF0FF307047BC15002028460020F1
S214403F30FCFF01204FF0FF30704700BF0020704765
S214403F4003460846194600F001B800BF10B40C46B8
S214403F5013460146224602205DF8044B00F0ECBBB7
S214403F6070B50F4E0F4D761BB61018BF002405D007
S214403F70013455F8043B9847A642F9D10A4E0B4DFA
S214403F80761B01F019F8B61018BF002406D001348D
S214403F9055F8043B9847A642F9D170BD70BD00BFA6
S214403FA0C44F4000C44F4000D84F4000C44F40006C
S214403FB0024B0146186800F003B800BFD00400204A
S214403FC02DE9F04F01F10B05162D83B0064627D993
S214403FD035F0070500F1B680A94200F2B38000F044
S214403FE0CFFAB5F5FC7F22D2C24FE80807EBC003F4
S214403FF0DC689C4200F0C8816368E168A56823F0ED
S2144040000303234430465A68E96042F001028D605B
S2144040105A6000F0B7FA0834204603B0BDE8F08F87
S214404020102900F28F8000F0ABFA1025DCE7680A12
S21440403000F08F80042800F25481A80938304100EF
S214404040AC4F07EB8101CC68A14206D10CE0002AB8
S21440405080F28280E468A14206D0636823F00303BE
S2144040605A1B0F2AF3DD01380130A2493C6901F1A1
S214404070080E744500F07D81636823F003035A1BE5
S2144040800F2A00F36381002AC1F814E0C1F810E05B
S21440409073DAB3F5007F80F03981DB0801EBC308A3
S2144040A04FEAA30C4A68D8F80890C4F80890012351
S2144040B003FA0CF31343C4F80C804B60C8F808406E
S2144040C0C9F80C408210012494409C4262D8234296
S2144040D006D120F003006400234200F10400FAD029
S2144040E007EBC008C4468146DCF80C309C4507D137
S2144040F041E1002980F25181DB689C4500F03B811C
S2144041005A6822F00302511B0F29F2DD1C46D3F8F1
S2144041100CC054F8088F5A1945F0010941F00105C2
S214404120C3F804903046C8F80CC0CCF808807A61D2
S2144041303A61C2F80CE0C2F808E05560515000F011
S21440414021FA69E700240C232046336003B0BDE81B
S214404150F08F7E213F2073E72344E1685A68A568C4
S21440416042F00102E96030468D605A6000F00AFA7B
S2144041700834204603B0BDE8F08F234430465A68E2
S21440418042F001025A6000F0FDF90834204603B0C0
S214404190BDE8F08FBC68636823F00308454504D843
S2144041A0C5EB08030F2B00F38C80534BDFF858A168
S2144041B01A68DAF8003001332A4404EB080B00F0A2
S2144041C0508102F580520F3222F47F6222F00F02B5
S2144041D011463046019200F0D7F9B0F1FF3F8146D4
S2144041E0019A00F04781834500F2EE80434B196800
S2144041F0CB451144196000F04281DAF80000DFF840
S21440420008E101301BBFCBEB090B5944CEF80090B8
S214404210196019F0070100F00781C1F10800C1F5E7
S2144042208051814408314A44C2F30B02C2EB010A72
S21440423051463046019300F0A7F9431C019B00F01D
S2144042402C81C9EB0002524442F001021968C7F8BB
S21440425008905144BC42C9F804201960DFF89CA07D
S21440426016D0B8F10F0F40F2EE806268A8F10C034A
S21440427023F00703E01802F001024FF0050E1A4340
S2144042800F2B6260C0F804E0C0F808E000F2098135
S2144042901B4BBC681A68914288BF1960194B1A6854
S2144042A09142626888BF196022F003029542A2EBF1
S2144042B0050301D80F2B04DC304600F063F90024D8
S2144042C0AAE6621943F0010345F0010565603046F1
S2144042D0BA60536000F056F90834204603B0BDE893
S2144042E0F08F142868D9542800F29780280B6E3037
S2144042F04100A5E6D4040020C8150020CC150020B7
S214404300C4150020C0150020E00800205A0A042AE0
S21440431055D9142A00F2A7805B324FEA420C07EBCD
S2144043208C0CDFF8BC81DCF8081061457FD04A6809
S21440433022F00302934202D289688C45F7D1CA68BC
S2144043407B68E260A1609460CC60BBE6631942F093
S214404350010745F00105656030464B610B61C3F8C7
S2144043600CE0C3F808E05F609A50083400F00AF9A1
S21440437052E64B68A6E609F1010919F0030F0CF165
S214404380080C7FF4B1AE2CE004F108036469A34244
S21440439008BF02303FF469AE2EE61A441C46516808
S2144043A0DB6854F8085F41F0010151603046EB602D
S2144043B09D6000F0E7F82FE65B30410040E69A0942
S2144043C038324FEA420CAAE7BC42454B3FF40EAFA8
S2144043D09C68626822F0030268E7D8F80080984537
S2144043E07CD110F0030FA8F1080300F1FF30F4D1A0
S2144043F07B6823EA04037B6064009C423FF6CAAEB7
S214404400002C3FF4C7AE234248467FF469AE6400B2
S214404410234200F10400FAD062E6B0F5AA7F18D82D
S214404420E80B773041000BE64FF48051FBE6D8F8B6
S214404430043092104FF0010C0CFA02F21343C8F805
S21440444004300A467DE70123C9F804304C46002272
S2144044502CE740F2545398421CD8A80C7C304100BC
S214404460EEE51032B4E6542A23D81A0B6E324FEAE1
S214404470420C54E7BC68626822F0030216E7CBF3AE
S2144044800B0000287FF4B9AE4244BB6842F00102FC
S2144044905A60FDE6FC217E20D2E501224FF0000A5C
S2144044A0D4E604F10801304600F054FBDAF8001078
S2144044B0EEE6B2F5AA7F04D8DA0B77324FEA420C22
S2144044C02DE740F254518A4204D89A0C7C324FEA87
S2144044D0420C24E74FF0FC0C7E2220E77B688BE7FB
S2144044E0D404002070B4840746D0541E002A41D01D
S2144044F0CDB2034602E0621EE4B3144603F8015B05
S2144045009A07F8D1032C2ED9CDB245EA05250F2CB3
S21440451045EA054519D903F110022646103E0F2EEE
S21440452042F8105C42F80C5C42F8085C42F8045CC6
S21440453002F11002F2D8A4F1100222F00F0204F0A9
S2144045400F041032032C13440DD91E462246043A5B
S214404550032A46F8045BFAD8221F22F003020432EC
S214404560134404F003042CB1C9B21C4403F8011BE5
S214404570A342FBD170BC704714460346C2E700BF57
S214404580704700BF704700BF38B5074C002305464C
S21440459008462360FFF7B4FC431C00D038BD2368B0
S2144045A0002BFBD02B6038BD2416002000290CBF02
S2144045B0022200224FF4806300F000B82DE9F0415B
S2144045C03A4C26680D46044690461F4616B1B36BD5
S2144045D0002B3CD0B8F1020F2FD8002F2DDB214600
S2144045E0304600F0B5F9A18900236360A3610B064D
S2144045F027D421F0830189B2B8F1020FA1812AD0D5
S214404600002D36D0B8F1010F11D089B201F0080064
S214404610274BF36380B225602561676178B111F05E
S214404620030F18BF0027A7600020BDE8F08141F0C7
S21440463001017B42A181A361E7E74FF0FF30BDE86F
S214404640F0812169304600F085FAA189D1E73046ED
S21440465000F012FABEE7002004F1430341F00201E5
S21440466000250122A181A560236023616261BDE827
S214404670F081002F08BF4FF480673846FFF798FC5C
S214404680054628B1A18941F0800189B2A181B9E7E8
S2144046904FF48060FFF78CFC054618B9A1894FF0AF
S2144046A0FF30D9E74FF48067ECE700BFD004002026
S2144046B07D49400020F0030110F00300C0F10000E7
S2144046C051F8043B00F1040C4FEACC0C6FF00002AA
S2144046D01CBF22FA0CF213434FF0010C4CEA0C2C90
S2144046E04CEA0C4CA3EB0C0222EA030212EACC1270
S2144046F004BF51F8043B0430F4D0C2F1000102EA92
S2144047000102B2FA82F2C2F11F0200EBD2007047F9
S21440471070B5084C06460025084611461A462560E0
S214404720FEF7B8FF431C00D070BD2368002BFBD0BB
S214404730336070BD241600202DE9F047254C2568CF
S214404740D5F848410646884692469946CCB36068B6
S2144047501F2818DC431C7EB104EB80050121C5F8F8
S21440476088A0D4F8887101FA00F21743022EC4F8E4
S2144047708871C5F808911ED00230636044F82080E6
S2144047800020BDE8F087144B03B34FF4C870FFF722
S2144047900FFC0446D0B1D5F84831002780E88800A1
S2144047A0C5F8484138460123C4F88871C4F88C716E
S2144047B0002EE1D0D0E7D4F88C110A43C4F88C21FF
S2144047C0DAE705F5A674C5F84841C0E74FF0FF3074
S2144047D0BDE8F087B44F4000B13F4000024B13B1F4
S2144047E0024800F005B87047000000008D4A4000BF
S2144047F00146002002460346FFF79EBF8B899AB2C9
S2144048002DE9F0410D46110780463CD46A6843F4D2
S2144048100063002AAB8165DDAE6A002E4BD09BB2AA
S21440482003F48052002192B2D8F80040C8F8001035
S214404830002A5BD02A6D5F0705D569682B6B521A34
S2144048400BB1EB6BD21A4046E9690023B047461CD1
S21440485056D0AB892A692A6023F400639BB20022B3
S2144048606A60DA04AB813BD4296BC8F8004011B3C8
S21440487005F14003994202D0404600F06BF9002013
S2144048802863BDE8F0812E69AEB12C682E60910792
S2144048900CBF6B690023A41BAB600AE0324623467C
S2144048A06F6AE9694046B8470028A4EB000406440E
S2144048B004DD002CF2DC0020BDE8F081AB8943F03B
S2144048C04003AB814FF0FF30BDE8F081AB892A69E9
S2144048D0696023F400639BB2AB81DB042A60C3D5D6
S2144048E02865C1E7EA6B002A96DCE4E701234046E8
S2144048F0E969B047431C024619D0AB89AE6A9AE7CD
S214404900D8F800100029E1D01D2907D0162905D077
S214404910AB8943F04003AB81BDE8F081AB892A699F
S2144049202A6023F400630022AB816A609CE7D8F8D3
S2144049300030002BE1D01D2B07D0162B05D0AB89BD
S21440494043F04003AB81BDE8F081C8F80040B2E7D1
S21440495010B5044682B008B1836B53B1B1F90C0070
S21440496008B902B010BD204602B0BDE81040FFF7BF
S21440497045BF019100F080F80199EFE7014900F04A
S214404980C1B900BF014E40002DE9F04F354B456898
S214404990C3630024074600F53B7204230321C0F896
S2144049A0E412C0F8E822C0F8E04283B02C606C60A5
S2144049B0AC606C66EC812C616C61AC61AB8121466D
S2144049C005F15C000822FFF78DFDBE68DFF898B061
S2144049D0DFF898A0DFF89890DFF89880C5F820B008
S2144049E001230922C5F824A0C5F82890C5F82C80D4
S2144049F0ED612146F381B28106F15C00346074605B
S214404A00B460746634617461B46108220193FFF740
S214404A1069FDFD68F66112200222C6F820B0C6F88D
S214404A2024A0C6F82890C6F82C802146A881EA81A2
S214404A302C606C60AC606C662C616C61AC6105F19E
S214404A405C000822FFF74EFD019BED61C5F820B0E3
S214404A50C5F824A0C5F82890C5F82C80BB6303B0E1
S214404A60BDE8F08F7D494000594D40007D4D4000E7
S214404A70B54D4000D54D4000836B03B17047FFF7FE
S214404A8083BF00BF704700BF704700BF38B5084BB4
S214404A90084DED1AAC1018BFED1805D0013C55F87E
S214404AA0043D9847002CF9D1BDE8384000F094BA50
S214404AB0E44F4000E84F4000F8B5234F0C4606460A
S214404AC0FFF75EFDBB685D6825F00305291B01F610
S214404AD0EF7121F47F6121F00F01A1F58054B4F508
S214404AE0805F07DB30460021FFF74EFDBB682B4456
S214404AF0984204D03046FFF745FD0020F8BD3046CA
S214404B006142FFF741FD01300DD0104BBA6819687D
S214404B102D1B45F001053046091B55601960FFF70F
S214404B2031FD0120F8BD30460021FFF72DFDBA6863
S214404B30831A0F2BDEDD064C0449246843F001033C
S214404B40001B53600860D5E7D4040020CC15002035
S214404B50E008002000294ED02DE9F0410C46804662
S214404B60FFF70EFD54F8047C624927F00102A4F1D9
S214404B700805AB188E6858689E4220F003005AD04D
S214404B80FE0758600BD454F8087CED1B01F1080E64
S214404B90AC6874453A4467D0EF68E760BC601C1860
S214404BA06468E4070CD4544F9C68BC4202447CD0F2
S214404BB0D868E06042F0010384606B60AA5003E06E
S214404BC042F001036B60AA50B2F5007F14D2D208BF
S214404BD001EBC20348689F68AF609210012404FA54
S214404BE002F21043EB6048609D60FD604046BDE8C1
S214404BF0F041FFF7C7BC7047530A042B47D89309C8
S214404C0003F13804600001EB80003A498368834230
S214404C1043D0596821F00301914202D99B689842DB
S214404C20F7D1DA68EA60AB6040469560DD60BDE883
S214404C30F041FFF7A7BCFF07024407D454F8083CEE
S214404C40ED1A1A44A868EB68C36098602B4B1B6843
S214404C5042F001009A4268608D60C7D3284B4046B8
S214404C601968FFF729FFC1E719184968C90709D429
S214404C70D9689B68024442F00100D9608B60686046
S214404C80AA50B3E742F001036B60AA50AEE7142B7C
S214404C9014D803F15B046000B5E74A68A41001200D
S214404CA0A04002434A601A46BCE742F001034D6109
S214404CB00D61EC60AC606B60AA5097E7542B04D84B
S214404CC0130B03F16E0460009DE7B3F5AA7F04D88A
S214404CD0D30B03F17704600095E740F254508342CB
S214404CE004D8930C03F17C0460008CE7FC207E24FF
S214404CF089E700BFD4040020DC040020DC08002044
S214404D00C81500202DE9F84310F538771FD088469F
S214404D1006464FF000097D68BC68013D11D4A38962
S214404D20012B05F1FF3508D9B4F90E300133214681
S214404D30304602D0C04749EA00096B1C04F16804BB
S214404D40EDD13F68002FE6D14846BDE8F883B94626
S214404D504846BDE8F88300BF10B50C46B1F90E10C2
S214404D6000F0A4F8002803DB236D0344236510BD40
S214404D70A38923F48053A38110BD00BF2DE9F041E1
S214404D8016468A891D46D3050C46074606D5002298
S214404D90B1F90E10022300F075F8A289B4F90E108E
S214404DA022F48052A281384632462B46BDE8F04176
S214404DB0FFF7AEBC10B50C46B1F90E1000F062F825
S214404DC0A389421C0EBF23F4805343F480532065CE
S214404DD0A38110BDB1F90E1000F000B838B5074CED
S214404DE00023054608462360FFF7A4F8431C00D07E
S214404DF038BD2368002BFBD02B6038BD241600201E
S214404E0000293DD070B505460C4608B1836B7BB390
S214404E10B4F90C300BB9002070BD28462146FFF788
S214404E20EDFCE36A064633B12846E1699847002818
S214404E30B8BF4FF0FF36A3891B061CD4216B41B187
S214404E4004F14003994202D02846FFF783FE002330
S214404E502363616C21B12846FFF77CFE0023636420
S214404E60FFF710FE0023A381FFF70EFE304670BD0D
S214404E70FFF702FECCE728462169FFF76BFEDDE729
S214404E800020704770B5084C064600250846114677
S214404E901A462560FFF752F8431C00D070BD2368C1
S214404EA0002BFBD0336070BD2416002070B5084C34
S214404EB006460025084611461A462560FCF7D2FDF0
S214404EC0431C00D070BD2368002BFBD0336070BD00
S214404ED024160020456E74657220746869732075C8
S214404EE06E69742773206164647265737300000092
S214404EF052657175657374696E6720416464726546
S214404F0073732066726F6D207377697463683A2096
S214404F100000000053656E74205061636B6574003A
S214404F20466C757368656400476F742044617461AD
S214404F303A200000200000000000000000000000B2
S214404F4085044000C50A40003D0340002904400057
S214404F50450340005D0340000000000000000000E4
S214404F60C1074000C50A40000D0540003D0740000F
S214404F70150540002D0540000D0A00006E616E00CC
S214404F80696E66006F7666002E0000000000000026
S214404F900000000000000000490C4000650C400086
S214404FA0350C4000510D40003D0C4000450C400083
S214404FB043000000A8000020F8B500BFF8BC08BCBD
S214404FC09E467047DD474000F1004000CD0440005B
S214404FD0A1084000950D4000F8B500BFF8BC08BCDD
S20C404FE09E467047CD004000DC
S20C404FE858EFFF7F01000000B6
S214404FF000000000751140001D0E4000390E4000B4
S2144050003D0E400045104000C10D40000D0E4000D2
S214405010410E40003D0E400000000000040309041D
S2144050204C00002044000020000000001800002033
S21440503004000020600000203C0000201201000216
S21440504002000040EB0304240001000000010000C1
S21440505009024300020100C03209040000010202B6
S2144050600100052400100104240202052406000164
S21440507005240103010705830340001009040100CD
S214405080020A0000000705810240000007050202F0
S2144050904000000100093D0000000000940300208D
S2144050A0FC03002064040020000000000000000014
S2144050B000000000000000000000000000000000AB
S2144050C0000000000000000000000000B04F40005C
S2144050D0000000000000000000000000000000008B
S2144050E0000000000000000000000000000000007B
S2144050F0000000000000000000000000000000006B
S214405100000000000000000000000000000000005A
S214405110000000000000000000000000000000004A
S214405120000000000000000000000000000000003A
S214405130000000000000000000000000000000002A
S21440514001000000000000000E33CDAB34126DE6C7
S214405150ECDE05000B000000000000000000000030
S21440516000000000000000000000000000000000FA
S21440517000000000000000000000000000000000EA
S21440518000000000000000000000000000000000DA
S21440519000000000000000000000000000000000CA
S2144054C0A80000200000000000000000D4040020D7
S2144054D0D4040020DC040020DC040020E404002087
S2144054E0E4040020EC040020EC040020F404002037
S2144054F0F4040020FC040020FC04002004050020E6
S214405500040500200C0500200C0500201405002092
S214405510140500201C0500201C0500202405002042
S214405520240500202C0500202C05002034050020F2
S214405530340500203C0500203C05002044050020A2
S214405540440500204C0500204C0500205405002052
S214405550540500205C0500205C0500206405002002
S214405560640500206C0500206C05002074050020B2
S214405570740500207C0500207C0500208405002062
S214405580840500208C0500208C0500209405002012
S214405590940500209C0500209C050020A4050020C2
S2144055A0A4050020AC050020AC050020B405002072
S2144055B0B4050020BC050020BC050020C405002022
S2144055C0C4050020CC050020CC050020D4050020D2
S2144055D0D4050020DC050020DC050020E405002082
S2144055E0E4050020EC050020EC050020F405002032
S2144055F0F4050020FC050020FC05002004060020E1
S214405600040600200C0600200C060020140600208D
S214405610140600201C0600201C060020240600203D
S214405620240600202C0600202C06002034060020ED
S214405630340600203C0600203C060020440600209D
S214405640440600204C0600204C060020540600204D
S214405650540600205C0600205C06002064060020FD
S214405660640600206C0600206C06002074060020AD
S214405670740600207C0600207C060020840600205D
S214405680840600208C0600208C060020940600200D
S214405690940600209C0600209C060020A4060020BD
S2144056A0A4060020AC060020AC060020B40600206D
S2144056B0B4060020BC060020BC060020C40600201D
S2144056C0C4060020CC060020CC060020D4060020CD
S2144056D0D4060020DC060020DC060020E40600207D
S2144056E0E4060020EC060020EC060020F40600202D
S2144056F0F4060020FC060020FC06002004070020DC
S214405700040700200C0700200C0700201407002088
S214405710140700201C0700201C0700202407002038
S214405720240700202C0700202C07002034070020E8
S214405730340700203C0700203C0700204407002098
S214405740440700204C0700204C0700205407002048
S214405750540700205C0700205C07002064070020F8
S214405760640700206C0700206C07002074070020A8
S214405770740700207C0700207C0700208407002058
S214405780840700208C0700208C0700209407002008
S214405790940700209C0700209C070020A4070020B8
S2144057A0A4070020AC070020AC070020B407002068
S2144057B0B4070020BC070020BC070020C407002018
S2144057C0C4070020CC070020CC070020D4070020C8
S2144057D0D4070020DC070020DC070020E407002078
S2144057E0E4070020EC070020EC070020F407002028
S2144057F0F4070020FC070020FC07002004080020D7
S214405800040800200C0800200C0800201408002083
S214405810140800201C0800201C0800202408002033
S214405820240800202C0800202C08002034080020E3
S214405830340800203C0800203C0800204408002093
S214405840440800204C0800204C0800205408002043
S214405850540800205C0800205C08002064080020F3
S214405860640800206C0800206C08002074080020A3
S214405870740800207C0800207C0800208408002053
S214405880840800208C0800208C0800209408002003
S214405890940800209C0800209C080020A4080020B3
S2144058A0A4080020AC080020AC080020B408002063
S2144058B0B4080020BC080020BC080020C408002013
S2144058C0C4080020CC080020CC08002000000200BD
S2084058D0FFFFFFFF93
S804400000BB
